:100000000C9472000C949A000C949A000C949A0030
:100010000C949A000C949A000C949A000C949A00F8
:100020000C949A000C949A000C949A000C949A00E8
:100030000C949A000C949A000C949A000C949A00D8
:100040000C94A1150C949A000C946F150C944915FE
:100050000C949A000C949A000C949A000C949A00B8
:100060000C94EB150C949A00005EBCE2613FDD83BA
:10007000C29C7E20A3FD1F41009D23BE46DB65F888
:100080008C11AF32CA57E974000000002400270029
:100090002A0000000000250028002B0000000008B6
:1000A000000201000003040700000000000000003F
:1000B00000000000230026002900040404040404B6
:1000C0000404020202020202030303030303010207
:1000D00004081020408001020408102001020408D6
:1000E00010200A1711241FBECFEFD8E0DEBFCDBF0E
:1000F00013E0A0E0B1E0EEEDF8E302C005900D9250
:10010000A232B107D9F725E0A2E2B3E001C01D9207
:10011000A235B207E1F710E0C2E7D0E004C02197B2
:10012000FE010E94671CC137D107C9F70E94CE1794
:100130000C946D1C0C9400008F929F92AF92BF9212
:10014000CF92DF92EF92FF920F931F93CF93E091A4
:100150004605F09147053196C0E000E010E09801B7
:10016000CC24CA94DC2CEC2CF12C40E050E0BA01F9
:100170008C2F90E0E817F907DCF1880F991F880FA2
:10018000991FDC01AF52BB4F17968D909D90AD909B
:10019000BC901A978C149D04AE04BF0434F41796D7
:1001A000CD90DD90ED90FC901A97DC01AF52BB4FE3
:1001B00017968D909D90AD90BC901A9708151905D3
:1001C0002A053B0534F417960D911D912D913C9114
:1001D0001A978F529B4FDC0117968D909D90AD9092
:1001E000BC901A97480D591D6A1D7B1DCF5FC0CF6B
:1001F0004C195D096E097F09CB01BA01601B710BB7
:10020000820B930BCF911F910F91FF90EF90DF9096
:10021000CF90BF90AF909F908F900895AF92BF9274
:10022000CF92DF92EF92FF920F931F93CF93DF93C2
:100230006C017B018B01040F151FEB015E01AE18F1
:10024000BF08C017D10759F06991D601ED91FC9113
:100250000190F081E02DC6010995892B79F7C50140
:10026000DF91CF911F910F91FF90EF90DF90CF9092
:10027000BF90AF90089508950895FC01538D448D6B
:10028000252F30E0842F90E0821B930B541710F041
:10029000CF96089501970895FC01918D828D98174E
:1002A00061F0A28DAE0FBF2FB11D5D968C91928D26
:1002B0009F5F9F73928F90E008958FEF9FEF089557
:1002C000FC01918D828D981731F0828DE80FF11D20
:1002D000858D90E008958FEF9FEF0895FC01918D3B
:1002E000228D892F90E0805C9F4F821B91098F7334
:1002F0009927089589EF93E00E946E0121E0892BF0
:1003000009F420E0822F089580E090E0892B29F005
:100310000E947A0181110C9400000895FC01A48DC3
:10032000A80FB92FB11DA35ABF4F2C91848D90E017
:1003300001968F739927848FA689B7892C93A089FA
:10034000B1898C91837080648C93938D848D981384
:1003500006C00288F389E02D80818F7D8083089517
:10036000EF92FF920F931F93CF93DF93EC0181E005
:10037000888F9B8D8C8D98131AC0E889F9898081AC
:1003800085FF15C09FB7F894EE89FF896083E889DF
:10039000F98980818370806480839FBF81E090E0D1
:1003A000DF91CF911F910F91FF90EF900895F62E5E
:1003B0000B8D10E00F5F1F4F0F731127E02E8C8DF8
:1003C0008E110CC00FB607FCFACFE889F98980813D
:1003D00085FFF5CFCE010E948E01F1CFEB8DEC0FA2
:1003E000FD2FF11DE35AFF4FF0829FB7F8940B8F5A
:1003F000EA89FB8980818062CFCFCF93DF93EC01C4
:10040000888D8823B9F0AA89BB89E889F9898C91FC
:1004100085FD03C0808186FD0DC00FB607FCF7CFB8
:100420008C9185FFF2CF808185FFEDCFCE010E94B8
:100430008E01E9CFDF91CF910895833081F028F4C8
:10044000813099F08230A9F008958730A9F0883082
:10045000C9F08430B1F4809180008F7D03C0809119
:1004600080008F7780938000089584B58F7784BD56
:10047000089584B58F7DFBCF8091B0008F778093F6
:10048000B00008958091B0008F7DF9CFCF93DF93B6
:10049000282F30E0F901E456FF4F8491F901E2532F
:1004A000FF4FD491F901E654FF4FC491CC23A1F042
:1004B00081110E941D02EC2FF0E0EE0FFF1FE055AE
:1004C000FF4FA591B491EC91ED2381E090E009F408
:1004D00080E0DF91CF91089580E090E0FACF1F9304
:1004E000CF93DF93282F30E0F901E456FF4F84913A
:1004F000F901E253FF4FD491F901E654FF4FC49143
:10050000CC23A9F0162F81110E941D02EC2FF0E0E0
:10051000EE0FFF1FEE56FF4FA591B4918FB7F894E1
:10052000EC91111108C0D095DE23DC938FBFDF91D1
:10053000CF911F910895DE2BF8CFCF93DF9390E0FA
:10054000FC01E253FF4F249186549F4FFC0184919C
:100550008823D1F090E0880F991FFC01E857FF4FE6
:10056000A591B491FC01EE56FF4FC591D491611154
:100570000EC09FB7F8948C91E22FE0958E238C9358
:100580002881E223E8839FBFDF91CF9108958FB741
:10059000F894EC91E22BEC938FBFF6CF3FB7F89431
:1005A0008091ED039091EE03A091EF03B091F003E1
:1005B00026B5A89B05C02F3F19F00196A11DB11DBE
:1005C0003FBFBA2FA92F982F8827BC01CD01620FFA
:1005D000711D811D911D42E0660F771F881F991FB5
:1005E0004A95D1F708958F929F92AF92BF92CF9282
:1005F000DF92EF92FF926B017C010E94CE024B01D1
:100600005C01C114D104E104F104B9F00E94CE02EE
:10061000681979098A099B09683E7340810591052B
:1006200080F321E0C21AD108E108F10888EE880EB3
:1006300083E0981EA11CB11CE4CFFF90EF90DF90E7
:10064000CF90BF90AF909F908F9008952FB7F89460
:100650006091E9037091EA038091EB039091EC03C0
:100660002FBF0895DC0180E0615090F09D919827A4
:10067000E92FEF70F0E0E859FF4F2491E92FE29560
:10068000EF70F0E0E858FF4FE491822F8E27ECCF17
:100690000895DC012C911196ED91FC91F8948181E3
:1006A000822B81839281322F30959323928387E02E
:1006B00090E00197F1F781818323818383E290E0C9
:1006C0000197F1F790817894EFECF0E03197F1F732
:1006D000922381E009F480E00895FC01908101807B
:1006E000F281E02D292F209560FF14C0F8948281BB
:1006F000822382838181892B8183A3E2B0E01197D9
:10070000F1F78281982B9283789487ED90E001979E
:10071000F1F70895F8948281822382838181892B65
:100720008183AFEFB0E01197F1F78281982B92832C
:1007300078948FE090E0EBCFDF92EF92FF920F93EF
:100740001F93CF93DF93EC01D62EE42E08E010E048
:10075000FF24F39461E08D2D8F2109F460E0CE0138
:100760000E946D03FF0C01501109A1F7E11010C0A8
:10077000F894E981FA819181888180958923818328
:10078000E981FA8192818881809589238283789496
:10079000DF91CF911F910F91FF90EF90DF9008951F
:1007A000EF92FF920F931F93CF93DF938C017B0106
:1007B00040E065E50E949C03E70188E0E80EF11C3B
:1007C000699140E0C8010E949C03CE15DF05C1F786
:1007D000DF91CF911F910F91FF90EF900895FC0151
:1007E00090810180F281E02DF8948181292F20955C
:1007F0008223818378943DE743E050E0315029F132
:10080000DA011197F1F780818923C1F3F89482818D
:10081000822382838181892B81837894ABE7B7E03F
:100820001197F1F7F894818182238183A3E1B1E0EC
:100830001197F1F78081982381E009F080E07894A6
:10084000E3E6F6E03197F1F7089580E00895AF927E
:10085000BF92CF92DF92EF92FF920F931F93CF93AD
:10086000DF938B01BC018091B5049091B6040E9486
:10087000D00340E06EEB8091B5049091B6040E94E5
:100880009C03E801680189E0C80ED11CA090B50462
:10089000B090B60488E0E82EF12C10E001E0C5012C
:1008A0000E9449038111102B000F81E0E81AF10822
:1008B000B1F71993CC16DD0649F78091B5049091F4
:1008C000B6040E94EF0391E0813009F090E0892F97
:1008D000DF91CF911F910F91FF90EF90DF90CF901C
:1008E000BF90AF9008950F931F93CF93DF93CDB731
:1008F000DEB729970FB6F894DEBF0FBECDBF8C01CF
:100900008091B5049091B6040E94EF03811102C05A
:1009100080E01FC0BE016F5F7F4FC8010E942704A7
:100920008823B1F368E0CE0101960E9432039985D5
:100930008913EECF8D818F33B9F020F48F3141F7D9
:1009400089E007C08F3521F08F3711F78CE001C0A7
:100950008BE029960FB6F894DEBF0FBECDBFDF91B6
:10096000CF911F910F9108958AE0F3CF8F929F92BC
:10097000AF92BF92CF92DF92EF92FF928091B50437
:100980009091B6040E94EF0340E06CEC8091B504B6
:100990009091B6040E949C034091AF0464E480915E
:1009A000B5049091B6040E949C038091B104882301
:1009B00099F1E091B004E9508EEEC82E82E0D82E75
:1009C000E33038F4F0E0EE0FFF1FEA5CFE4FC0802A
:1009D000D1808091B204882341F18091AF048111CC
:1009E00024C00E9426034B015C010D2C000CEE0874
:1009F000FF088091B5049091B6040E9449038130AC
:100A000059F00E9426036C197D098E099F0968150B
:100A100079058A059B0568F3FF90EF90DF90CF90F2
:100A2000BF90AF909F908F900895B601DD0C880B1A
:100A3000990BFF90EF90DF90CF90BF90AF909F9079
:100A40008F900C94F30220919E03260F3327331FBF
:100A500021323105ECF42091C203FC0190E080E0EA
:100A6000243069F082E00895A0919E032191AC01A9
:100A700042585C4FA40FB52FB11D2C9301968617D9
:100A800098F380919E03680F60939E0380E0089521
:100A900081E008951092C20381E08093C403109214
:100AA000C30361E082E10E946F0261E083E10E9482
:100AB0006F02E9EBF0E080818E7F808380818D7F03
:100AC000808388E48093B80085E48093BC00089517
:100AD000CF93DF9391E090937D038823B9F0C09189
:100AE000B800D091BA008091BC008A7B8093BC0092
:100AF00060E082E10E946F0260E083E10E946F0289
:100B00000E944A05D093BA00C093B800DF91CF91FC
:100B100008950895E091F8038091F703E81730F401
:100B2000F0E0E85AFC4F808190E008958FEF9FEF4E
:100B300008959091F8038091F7032FEF3FEF9817F6
:100B400048F4E92FF0E0E85AFC4F208130E09F5F45
:100B50009093F803C90108958091F7039091F803E9
:100B6000891B990B0895CF92DF92EF92FF920F931A
:100B70001F93CF93DF937C01CB018A012091570310
:100B8000222389F0EB016B01C40ED51ECC15DD05C7
:100B900069F06991D701ED91FC910190F081E02D10
:100BA000C7010995F3CF642F0E942305C801DF9187
:100BB000CF911F910F91FF90EF90DF90CF9008950C
:100BC000CF93DF931F92CDB7DEB769832091570390
:100BD0002223F9F02091F503203258F021E030E093
:100BE000FC013383228390E080E00F90DF91CF916E
:100BF00008958091F603E82FF0E0E95CFC4F9981BD
:100C000090838F5F8093F6038093F50381E090E0FB
:100C1000ECCF61E0CE0101960E942305F7CFCF9281
:100C2000DF92EF92FF920F931F93CF93DF93FC011C
:100C3000C48121E020935703C09336031092F6033A
:100C40001092F5038485682B86E994E00E94E00504
:100C5000D091F503D13208F092C00E94CE026B0110
:100C60007C018091C203811165C082E08093C20340
:100C700081E08093C4038FEF8093C1031092E60359
:100C8000D093E503A7E3B3E0E5ECF3E080E0D8130D
:100C900085C01092E7038091E703CC0FC82BC09367
:100CA000E7038091C303813009F07CC01092C30335
:100CB0000E94CE026B017C018091E7038093BB0010
:100CC0008091790390917A03A0917B03B0917C038A
:100CD000892B8A2B8B2B99F00E94CE0200917903ED
:100CE00010917A0320917B0330917C036C197D096C
:100CF0008E099F090617170728073907E0F1809129
:100D0000BC0083FDD9CF85EC8093BC000E94CE024D
:100D10006B017C018091C203823009F445C080914F
:100D2000C1038F3F61F18091C103803241F1809115
:100D3000C10325C08091790390917A03A0917B0330
:100D4000B0917C03892B8A2B8B2B09F48ACF0E94CC
:100D5000CE020091790310917A0320917B033091A8
:100D60007C036C197D098E099F0906171707280750
:100D7000390708F076CF809178030E9468051092B9
:100D8000F6031092F50310925703DF91CF911F9154
:100D90000F91FF90EF90DF90CF9008959D919193E8
:100DA0008F5F75CF85EEB0CF8091790390917A03F4
:100DB000A0917B03B0917C03892B8A2B8B2B09F4A8
:100DC000A9CF0E94CE020091790310917A0320915D
:100DD0007B0330917C036C197D098E099F090617EE
:100DE00017072807390708F095CFC5CF089590E079
:100DF00080E00895BF92CF92DF92EF92FF920F931F
:100E00001F93CF93DF93EC01B62EC72E8D858111F2
:100E100005C0CE010E94EF0381110EC01B861D8606
:100E20001C8680E0DF91CF911F910F91FF90EF9092
:100E3000DF90CF90BF90089540E060EFCE010E9418
:100E40009C0301E0E12CD12C11E0CE010E9449036A
:100E5000F82ECE010E94490391E0F91218C08130AA
:100E600099F51134D8F2DB86D11002C081E08D876C
:100E70008B81882399F22396EB2DFC2DCF010896C8
:100E800029912193E817F907D9F781E0CBCFEE2D0F
:100E9000F0E0F8120FC08B851817A0F4DE01AE0F3A
:100EA000BF1F13968C91802379F4F12C193008F42C
:100EB0001C87D12EEC0FFD1F8381902F90958923E5
:100EC00083830AC08113F1CFFE01EE0DF11D8381F2
:100ED000802B8383FF24F3946F2DCE010E946D033A
:100EE0001F5F000F11F4E39401E087E08E1508F016
:100EF000ACCFB7CFCF93DF93CDB7DEB761970FB647
:100F0000F894DEBF0FBECDBFE091B504F091B604FA
:100F1000138615861486128611861086178216820D
:100F2000158214821382BE01665F7F4F8091B504E3
:100F30009091B6040E94FA0681110DC060E070E045
:100F40008EEF92EC61960FB6F894DEBF0FBECDBF68
:100F5000DF91CF91089567E0CE010A960E94320397
:100F600099898913EBCF8091B5049091B6040E94C2
:100F7000EF03882319F3BE016F5F7F4FCE010A96FE
:100F80000E9427048823D1F268E0CE0101960E94D6
:100F9000320399858913D2CF6A8170E0762F662754
:100FA000770F770F770F298148E0249F9001112454
:100FB000262B372B8A858031D1F4688570E08F81AC
:100FC000AB01481B5109CA019695982F8827979520
:100FD00087950E941D1CCB014097B90153E0660F15
:100FE000771F5A95E1F760789C01260F371F21384B
:100FF00054EE35070CF4A2CFB901330F880B990BCF
:101000000E94F61A20E030E040E05CE30E94AB1B57
:1010100099CF0F931F93CF938C01C62F0E940F0679
:101020006C2F6460C8010E940F066C2F6B7FC80193
:101030000E940F0683EC90E00197F1F7CF911F918A
:101040000F9108950F931F93CF93DF938C01D62FA9
:10105000C42F607F642B0E94090880E1D89FB001F3
:1010600011246C2BC801DF91CF911F910F910C942B
:101070000908CF93DF93CDB7DEB728970FB6F89462
:10108000DEBF0FBECDBF98E0EEE2F1E0DE011196CB
:1010900001900D929A95E1F79091AA04981708F49F
:1010A0008FEF90E0880F991F21E030E02C0F3D1F5B
:1010B000820F931FFC016081606840E082EA94E047
:1010C00028960FB6F894DEBF0FBECDBFDF91CF914B
:1010D0000C94220840E061E082EA94E00E94220839
:1010E0008BE39FE10197F1F78091AB04882319F01E
:1010F00080E00C943908089541E00E94220881E0C4
:1011000090E00895FB0101900020E9F73197AF01CD
:10111000461B570BDC01ED91FC910280F381E02D21
:1011200009948F929F92AF92BF920F931F93CF9388
:10113000DF93CDB7DEB7A1970FB6F894DEBF0FBE31
:10114000CDBF19A2423008F44AE08E010F5D1F4F57
:10115000842E912CB12CA12CA50194010E94311C4C
:10116000E62FB901CA01EA3004F5E05DD801EE933B
:101170008D01232B242B252B79F790E080E010970D
:1011800029F0BD0182EA94E00E948208A1960FB680
:10119000F894DEBF0FBECDBFDF91CF911F910F91AD
:1011A000BF90AF909F908F900895E95CDFCFCF9272
:1011B000DF92EF92FF926C01990FEE08FF08F7FEA5
:1011C00016C041E06DE282EA94E00E9422086627A0
:1011D0007727CB016C197D098E099F094AE00E948F
:1011E00091080196FF90EF90DF90CF9008954AE02C
:1011F000C701B601FF90EF90DF90CF900C9491085B
:101200008F929F92AF92BF92CF92DF92EF92FF9216
:10121000CF938091D2040E9446028111D8C00E94CF
:10122000CE02C0902A05D0902B05E0902C05F090BE
:101230002D056C197D098E099F0960932E05709309
:101240002F0580933005909331050E94CE02609364
:101250002A0570932B0580932C0590932D051092F1
:101260004005C0E0C12CD12C76018091D30490E0E0
:101270004796C817190609F0ECF461E08091D10493
:101280000E946F02C83178F48091D2040E94460215
:10129000CC0CDD1CEE1CFF1C882329F08FEFC81A34
:1012A000D80AE80AF80A60E08091D1040E946F022F
:1012B000CF5FDBCF4601570180E8A8268114910457
:1012C000A10481E0B80678F081E080934C056CE6DB
:1012D00071E089EF93E00E9482086BE771E089EF8B
:1012E00093E00E9482088091280590912905209121
:1012F0004605309147052F5F3F4F8217930709F04E
:1013000040C01092290510922805C114D10480E82C
:10131000E806F104F1F0809140058F5F809340056D
:10132000E0912805F0912905EE0FFF1FEE0FFF1F3A
:10133000EF52FB4F87829086A186B2868091360558
:10134000882339F080913305823108F58F5F8093CF
:1013500033050E94260360934D0570934E058093DC
:101360004F05909350051092510580914005CF9103
:10137000FF90EF90DF90CF90BF90AF909F908F90B5
:10138000089501969093290580932805BECF0E9469
:101390009C002091340504C09595879577956795B5
:1013A0002A95D2F76093240570932505809326052E
:1013B00090932705109233051092360581E08093B3
:1013C0004105809140058F5F80934005C2CF0E9408
:1013D0002603AB01BC0180914D0590914E05A09173
:1013E0004F05B09150058C599F4FAF4FBF4F841799
:1013F0009507A607B70718F481E08093510510926E
:101400004005B3CFBC0182EA94E00C9482084F926D
:101410005F926F927F928F929F92AF92BF92CF9284
:10142000DF92EF92FF920F931F93CF936B017C019A
:10143000742EAC019B010E94181C6EE771E08111B3
:1014400026C046015701E894B7F82FEF3FEF4FE76A
:101450005FE7C501B4010E94181C81110CC02FEF79
:101460003FEF4FE75FE7C501B4010E94471A62E80A
:1014700071E0181664F02FEF3FEF4FE75FE4C7010C
:10148000B6010E94A61B1816ACF466E871E082EA69
:1014900094E0CF911F910F91FF90EF90DF90CF904C
:1014A000BF90AF909F908F907F906F905F904F9084
:1014B0000C9482082FEF3FEF4FE75FECC701B601B6
:1014C0000E94471A87FDE1CF20E030E0A901C70163
:1014D000B6010E94471A10E000E087FF0CC041E00F
:1014E0006DE282EA94E00E942208F7FAF094F7F89D
:1014F000F09401E010E0C0E060E070E080E09FE385
:101500007C1641F020E030E040E251E40E944C1AA9
:10151000CF5FF6CFA70196010E94DB194B015C015A
:101520000E94C51A2B013C014AE00E949108080F55
:10153000191FCC23C9F1C301B2010E94F41A9B0107
:10154000AC01C501B4010E94DA194B015C0141E014
:101550006EE282EA94E00E9422080F5F1F4FC150A2
:1015600018F120E030E040E251E4C501B4010E94EE
:10157000AB1B2B013C010E94C51A4B01B12CA12CC5
:101580004AE0C501B4010E949108080F191FC50166
:10159000B4010E94F41A9B01AC01C301B2010E9484
:1015A000DA194B015C01DBCFC801CF911F910F917C
:1015B000FF90EF90DF90CF90BF90AF909F908F9073
:1015C0007F906F905F904F900895AF92BF92CF92AF
:1015D000DF92EF92FF920F931F93CF93DF93C0E6BA
:1015E000DAEE80911201882309F41DC58BE00E9478
:1015F00046026C018CE00E9446027C018DE00E9454
:1016000046028C010E946A0880E00E9439088AE83C
:1016100091E00E94020A81E00E94390888E991E085
:101620000E94020A64EF71E080E090E00E94F30201
:1016300081E00E94390884EA91E00E94020A64EF86
:1016400071E080E090E00E94F302CA94CD2851F44A
:10165000109212010E9431146AEF70E080E090E075
:101660000E94F302EA94EF2809F0BBCF012B09F0A6
:10167000B8CF61E087E00E946F026AEF70E080E01F
:1016800090E00E94F30260E087E00E946F021092F7
:10169000120180911101882309F4BEC48BE00E94DD
:1016A00046028C018CE00E9446026C018DE00E9493
:1016B00046027C010E946A0880E00E94390881EBA2
:1016C00091E00E94020A81E00E94390880910F0196
:1016D000909110010E94D7086AEF70E080E090E0DE
:1016E0000E94F30221E0C216D10409F062C3EA9419
:1016F000EF2899F480910F01909110018B309105A2
:101700000CF04BC301969093100180930F0164E697
:1017100070E080E090E00E94F3020130110509F0D2
:10172000B8CF20910F01309110012C9FC0012D9F47
:10173000900D3C9F900D11249093100180930F0108
:10174000092E000CAA0BBB0B809328019093290152
:10175000A0932A01B0932B0161E087E00E946F0201
:101760006AEF70E080E090E00E94F30260E087E0C2
:101770000E946F021092110180911101882309F4D7
:1017800044C48BE00E9446028C018CE00E94460219
:101790006C018DE00E9446027C010E946A0880E094
:1017A0000E94390882ED91E00E94020A81E00E94C5
:1017B000390880910D0190910E010E94D7086AEFBF
:1017C00070E080E090E00E94F30281E0C816D1044E
:1017D00009F011C3EA94EF2899F480910D019091DA
:1017E0000E018D3391050CF0FAC2059690930E010F
:1017F00080930D0164E670E080E090E00E94F302C7
:101800000130110509F0B8CF60910D0170910E0102
:10181000072E000C880B990B0E94F61A6093130197
:1018200070931401809315019093160161E087E095
:101830000E946F026AEF70E080E090E00E94F30285
:1018400060E087E00E946F02109211018091110107
:10185000882309F4D3C38BE00E9446028C018CE0FC
:101860000E9446026C018DE00E9446027C010E94AB
:101870006A0880E00E94390883EF91E00E94020A22
:1018800081E00E94390880910B0190910C010E9427
:10189000D7086AEF70E080E090E00E94F30221E058
:1018A000C216D10409F0C9C2EA94EF2899F48091D4
:1018B0000B0190910C018B3591050CF0B2C2029690
:1018C00090930C0180930B0164E670E080E090E05F
:1018D0000E94F3020130110509F0B8CF20910B01ED
:1018E00030910C012C9FC0012D9F900D3C9F900DBD
:1018F000112490930C0180930B01092E000CAA0B6C
:10190000BB0B8093170190931801A0931901B0931A
:101910001A0161E087E00E946F026AEF70E080E0E8
:1019200090E00E94F30260E087E00E946F02109254
:10193000110180911101882309F459C38BE00E94A1
:1019400046028C018CE00E9446026C018DE00E94F0
:1019500046027C010E946A0880E00E94390882E009
:1019600092E00E94020A81E00E94390880910901F8
:1019700090910A010E94D7086AEF70E080E090E041
:101980000E94F30281E0C816D10409F078C2EA94FB
:10199000EF2899F48091090190910A018D33910506
:1019A0000CF061C2059690930A018093090164E6E8
:1019B00070E080E090E00E94F3020130110509F030
:1019C000B8CF6091090170910A01072E000C880BB5
:1019D000990B0E94F61A60931B0170931C0180936F
:1019E0001D0190931E0161E087E00E946F026AEF83
:1019F00070E080E090E00E94F30260E087E00E94E7
:101A00006F021092110180911101882309F4E8C23C
:101A10008BE00E9446028C018CE00E9446026C0121
:101A20008DE00E9446027C010E946A0880E00E94CC
:101A3000390881E192E00E94020A81E00E9439089F
:101A400080910701909108010E94D7086AEF70E029
:101A500080E090E00E94F30221E0C216D10409F078
:101A600030C2EA94EF28A1F4809107019091080117
:101A7000813E21E092070CF018C244969093080131
:101A80008093070164E670E080E090E00E94F3023A
:101A90000130110509F0B7CF2091070130910801FD
:101AA0002C9FC0012D9F900D3C9F900D1124909371
:101AB000080180930701092E000CAA0BBB0B809331
:101AC0001F0190932001A0932101B093220161E0B6
:101AD00087E00E946F026AEF70E080E090E00E9471
:101AE000F30260E087E00E946F0210921101809182
:101AF0001101882309F46DC28BE00E9446028C011B
:101B00008CE00E9446026C018DE00E9446027C013E
:101B10000E946A0880E00E94390880E292E00E94F8
:101B2000020A81E00E943908809105019091060126
:101B30000E94D7086AEF70E080E090E00E94F30214
:101B400081E0C816D10409F0DFC1EA94EF2899F4C6
:101B500080910501909106018D3391050CF0C8C16B
:101B60000596909306018093050164E670E080E09D
:101B700090E00E94F3020130110509F0B8CF6091A6
:101B8000050170910601072E000C880B990B0E942D
:101B9000F61A609324017093250180932601909397
:101BA000270161E087E00E946F026AEF70E080E049
:101BB00090E00E94F30260E087E00E946F021092C2
:101BC000110180910401882309F4FCC18BE00E947B
:101BD00046025C018CE00E9446027C018DE00E947E
:101BE00046028C010E946A0880E00E9439088FE258
:101BF00092E00E94020A81E00E943908609100018F
:101C000070910101809102019091030142E00E94D4
:101C1000070A21E0E216F10409F098C1013011052C
:101C200049F5C0900001D0900101E0900201F090D0
:101C3000030120E030E048EC51E4C701B6010E9406
:101C4000471A18160CF476C120E030E040E85FE354
:101C5000C701B6010E94DB19609300017093010176
:101C6000809302019093030164E670E080E090E0CD
:101C70000E94F302AA94AB2809F0A3CF609100015F
:101C80007091010180910201909103010E94BE1A9E
:101C900070932D0160932C0161E087E00E946F0238
:101CA0006AEF70E080E090E00E94F30260E087E07D
:101CB0000E946F02109204010E9426036093320377
:101CC0007093330380933403909335030E9426036B
:101CD0000091320310913303209134033091350386
:101CE000601B710B820B930B613F7944824091051D
:101CF00008F04BC10E9400090E949C0060934805B7
:101D00007093490580934A0590934B0520913405C3
:101D100004C095958795779567952A95D2F7009198
:101D20002405109125052091260530912705601B7B
:101D3000710B820B930B0E94F61A2091D404309100
:101D4000D5044091D6045091D7040E944C1A6B01DF
:101D50007C010E946A0880E00E94390886E592E0D2
:101D60000E94020A81E00E94390842E0C701B601E0
:101D70000E94070A86E692E00E94020AC0922A03A5
:101D8000D0922B03E0922C03F0922D036AEF70E0C7
:101D900080E090E00E94F30299CF81E00E94390830
:101DA00080EC91E00E94020A64EF71E080E090E034
:101DB000B2CCCD2809F0B1CCEA94EF2809F0ADCC33
:101DC00080910F01909110018330910514F00197DB
:101DD0009ACC81E00E94390889EC91E0E3CF81E060
:101DE0000E94390881EE91E00E94020A64EF71E0DE
:101DF00080E090E003CDCD2809F002CDEA94EF28F1
:101E000009F0FECC80910D0190910E018332910575
:101E100014F00597EBCC81E00E9439088AEE91E03E
:101E2000E3CF81E00E94390880EC91E00E94020A31
:101E300064EF71E080E090E04BCDCD2809F04ACD11
:101E4000EA94EF2809F046CD80910B0190910C01A6
:101E50008E32910514F0029733CD81E00E9439084B
:101E600089EC91E0E3CF81E00E94390881EE91E0B6
:101E70000E94020A64EF71E080E090E09CCDCD28E2
:101E800009F09BCDEA94EF2809F097CD80910901E4
:101E900090910A018832910514F0059784CD81E074
:101EA0000E9439088AEE91E0E3CF81E00E94390870
:101EB00080EC91E00E94020A64EF71E080E090E023
:101EC000E5CDCD2809F0E4CDEA94EF2809F0E0CD86
:101ED00080910701909108018D3221E0920714F062
:101EE0004497CCCD81E00E94390889EC91E0E2CFA3
:101EF00081E00E94390881EE91E00E94020A64EFBD
:101F000071E080E090E035CECD2809F034CEEA943F
:101F1000EF2809F030CE80910501909106018D32B5
:101F2000910514F005971DCE81E00E9439088AEED4
:101F300091E0E3CF81E00E9439088EE392E00E94B5
:101F4000020A64EF71E080E090E092CEEF2809F0A1
:101F500091CE0130110509F08DCEC0900001D090D6
:101F60000101E0900201F090030120E030E040E741
:101F700051E4C701B6010E94A61B87FF65CE81E030
:101F80000E9439088AE492E0DACF61E087E00E949B
:101F90006F026AEF70E080E090E00E94F30260E080
:101FA00087E00E946F020E9431146AEF70E080E0C7
:101FB00090E00E94F3026AEF70E080E090E00E94FF
:101FC000F302FFCD6AEF70E080E090E00E94F30240
:101FD0008ECD6AEF70E080E090E00E94F30213CDB6
:101FE0006AEF70E080E090E00E94F302A2CC6AEF1A
:101FF00070E080E090E00E94F30228CC6AEF70E08D
:1020000080E090E00E94F302B7CB6AEF70E080E0DE
:1020100090E00E94F3023DCB6AEF70E080E090E038
:102020000E94F302DECADF91CF911F910F91FF90C2
:10203000EF90DF90CF90BF90AF9008958F929F92D6
:10204000AF92BF92CF92DF92EF92FF920E946A0806
:1020500080E00E9439088EE692E00E94020A81E048
:102060000E9439088AE792E00E94020A64EF71E058
:1020700080E090E00E94F30261E087E00E946F023E
:102080006AEF70E080E090E00E94F30260E087E099
:102090000E946F020E942603609332037093330301
:1020A00080933403909335030E942603C09032033B
:1020B000D0903303E0903403F09035036C197D0920
:1020C0008E099F09613F79448240910508F053C011
:1020D0000E9400090E949C00609348057093490586
:1020E00080934A0590934B052091340504C0959543
:1020F0008795779567952A95D2F7C0902405D0905B
:102100002505E0902605F09027056C197D098E09BC
:102110009F090E94F61A2091D4043091D504409171
:10212000D6045091D7040E944C1A6B017C010E9486
:102130006A0880E00E94390887E892E00E94020A5B
:1021400081E00E94390842E0C701B6010E94070AF7
:1021500086E692E00E94020AC0922E03D0922F03DC
:10216000E0923003F09231036AEF70E080E090E09B
:102170000E94F30299CF64EF71E080E090E00E944A
:10218000F3020E946A0880E00E94390883E992E025
:102190000E94020A64EF71E080E090E00E94F30286
:1021A00061E087E00E946F026AEF70E080E090E0FB
:1021B0000E94F30260E087E00E946F020E94260303
:1021C0006093320370933303809334039093350309
:1021D000C0902A03D0902B03E0902C03F0902D03A5
:1021E00020912E0330912F03409130035091310301
:1021F000C701B6010E94DA19A70196010E944C1A84
:1022000020E030E048EC52E40E94AB1B60932603D0
:102210007093270380932803909329030E94260339
:10222000C0903203D0903303E0903403F090350334
:102230006C197D098E099F0961367A4E81059105D9
:1022400010F50E946A0880E00E9439088DE992E04A
:102250000E94020A81E00E94390860912603709171
:102260002703809128039091290342E00E94070AE6
:102270008DEA92E00E94020A64EF71E080E090E053
:102280000E94F302CBCF60912C0170912D01072E9B
:10229000000C880B990B0E94F61A209126033091AE
:1022A000270340912803509129030E94A61B87FD14
:1022B00039C080912301882309F4F9C08BE00E9482
:1022C00046027C018CE00E9446028DE00E9446029C
:1022D0000E946A0880E00E9439088FEA92E00E941A
:1022E000020A81E00E94390888EB92E00E94020A0B
:1022F0006AEF70E080E090E00E94F302EA94EF2839
:1023000051F4109223010E94E50A64E670E080E037
:1023100090E00E94F30264EF71E080E090E00E94A0
:10232000F302C7CF61E087E00E946F026AEF70E0BE
:1023300080E090E00E94F30260E087E00E946F027C
:102340000E946A0880E00E94390880EC92E00E94B6
:10235000020A81E00E9439088EEC92E00E94020A93
:1023600068EE73E080E090E00E94F30261E087E0B5
:102370000E946F026AEF70E080E090E00E94F3023A
:1023800060E087E00E946F0261E088E00E946F02D7
:102390000E942603609332037093330380933403C7
:1023A000909335030E942603C0903203D0903303EC
:1023B000E0903403F09035036C197D098E099F0974
:1023C0008090280190902901A0902A01B0902B01C3
:1023D00086169706A806B90608F459C00E94260377
:1023E0009B01AC012C193D094E095F0969017A0175
:1023F0000E94B6040E947A074B015C01809222037E
:1024000090922303A0922403B09225030E946A08AD
:1024100080E00E94390842E0C501B4010E94070A29
:1024200081E00E94390887ED92E00E94020A4AE0AA
:10243000C701B6010E949108209124013091250125
:10244000409126015091270160912203709123034E
:1024500080912403909125030E94A61B87FD12C042
:1024600060E082E00E946F0281E00E94390881EE04
:1024700091E00E94020A64EF71E080E090E00E9427
:10248000F30290CF61E082E00E946F02F4CF60E03F
:1024900082E00E946F0260E088E00E946F020E946A
:1024A0001E1064EF71E080E090E00E94F3026AEF9A
:1024B00070E080E090E0FF90EF90DF90CF90BF90D1
:1024C000AF909F908F900C94F302CF92DF92EF9297
:1024D000FF920F931F93CF93DF930E946A0880E0CF
:1024E0000E9439088FED92E00E94020A81E00E946A
:1024F00039088DEF92E00E94020A68EE73E080E0F6
:1025000090E00E94F30261E087E00E946F026AEFB0
:1025100070E080E090E00E94F30260E087E00E94BB
:102520006F0261E088E00E946F020E9426036093C0
:1025300032037093330380933403909335030E94E6
:102540002603C0903203D0903303E0903403F09020
:1025500035036C197D098E099F0900911F011091A7
:102560002001209121013091220106171707280729
:10257000390708F47EC00E9426039B01AC012C1988
:102580003D094E095F0969017A018BE00E9446020C
:10259000EC010E94B6040E947A07609322037093B4
:1025A000230380932403909325030E946A0880E00C
:1025B0000E94390888EE92E00E94020A609122038C
:1025C00070912303809124039091250342E00E949F
:1025D000070A81E00E94390887ED92E00E94020A12
:1025E0004AE0C701B6010E94910820911B01309179
:1025F0001C0140911D0150911E01609122037091B8
:10260000230380912403909125030E94A61B87FD3C
:102610002BC060E082E00E946F0281E00E943908D6
:1026200081EE91E00E94020A2197B9F40E946A08A3
:1026300080E00E9439088FEE92E00E94020A60ED6D
:1026400077E080E090E00E94F3020E941E106AEFA3
:1026500070E080E090E00E94F30264EF71E080E0BF
:1026600090E00E94F3026BCF61E082E00E946F0273
:10267000DBCF60E082E00E946F0260E088E00E94B1
:102680006F02DF91CF911F910F91FF90EF90DF903C
:10269000CF900C941E10CF92DF92EF92FF920F9387
:1026A0001F93CF93DF930E946A0880E00E9439084D
:1026B0008FED92E00E94020A81E00E94390889E1D0
:1026C00093E00E94020A68EE73E080E090E00E94CE
:1026D000F30261E087E00E946F026AEF70E080E041
:1026E00090E00E94F30260E087E00E946F0261E0E8
:1026F00088E00E946F020E94260360933203709369
:10270000330380933403909335030E942603C090D3
:102710003203D0903303E0903403F09035036C190A
:102720007D098E099F0900911701109118012091D0
:10273000190130911A01061717072807390708F4FD
:102740007EC00E9426039B01AC012C193D094E0955
:102750005F0969017A018BE00E944602EC010E9448
:10276000B6040E947A076093220370932303809338
:102770002403909325030E946A0880E00E94390890
:1027800088EE92E00E94020A609122037091230376
:10279000809124039091250342E00E94070A81E082
:1027A0000E94390887ED92E00E94020A4AE0C701C0
:1027B000B6010E94910820911B0130911C014091AB
:1027C0001D0150911E01609122037091230380919D
:1027D0002403909125030E94A61B87FD2BC060E077
:1027E00082E00E946F0281E00E94390881EE91E050
:1027F0000E94020A2197B9F40E946A0880E00E94B0
:1028000039088AEF92E00E94020A60ED77E080E0EA
:1028100090E00E94F3020E9465126AEF70E080E08F
:1028200090E00E94F30264EF71E080E090E00E948B
:10283000F3026BCF61E082E00E946F02DBCF60E0C9
:1028400082E00E946F0260E088E00E946F02DF91E8
:10285000CF911F910F91FF90EF90DF90CF900C944C
:102860006512CF92DF92EF92FF920F931F93CF9357
:10287000DF930E946A0880E00E94390885E093E0B7
:102880000E94020A81E00E9439088EE093E00E94D3
:10289000020A68EE73E080E090E00E94F30261E0DB
:1028A00087E00E946F026AEF70E080E090E00E9493
:1028B000F30260E087E00E946F020E9426036093AB
:1028C000320370933303809334039093350361E0B4
:1028D00088E00E946F020E942603C0903203D090CD
:1028E0003303E0903403F09035036C197D098E09B1
:1028F0009F09009128011091290120912A0130910E
:102900002B01061717072807390708F478C00E941B
:1029100026039B01AC012C193D094E095F09690191
:102920007A018BE00E944602EC010E94B6040E94EC
:102930007A07609322037093230380932403909378
:1029400025030E946A0880E00E94390888EE92E020
:102950000E94020A60912203709123038091240354
:102960009091250342E00E94070A81E00E94390805
:1029700089EB91E00E94020A4AE0C701B6010E9479
:10298000910820911301309114014091150150914B
:10299000160160912203709123038091240390918A
:1029A00025030E94A61B87FD25C060E082E00E94EF
:1029B0006F0281E00E94390881EE91E00E94020AD4
:1029C000219789F40E946A0880E00E94390886E114
:1029D00093E00E94020A60ED77E080E090E00E94C0
:1029E000F3020E944B1364EF71E080E090E00E94DC
:1029F000F30271CF61E082E00E946F02E1CF60E0FC
:102A000082E00E946F0260E088E00E946F02DF9126
:102A1000CF911F910F91FF90EF90DF90CF900C948A
:102A20004B1385ED8093BC008091790390917A03DC
:102A3000A0917B03B0917C030796A11DB11D23E0FB
:102A4000B695A795979587952A95D1F72091BC00C3
:102A500024FD03C01092C203089540917903509160
:102A60007A0360917B0370917C03452B462B472BA7
:102A700069F30097A105B10541F025E32A95F1F727
:102A800000000197A109B109E1CF809178030C946E
:102A900068051F920F920FB60F9211242F933F9348
:102AA0004F935F936F937F938F939F93AF93BF9356
:102AB000EF93FF9389EF93E00E948E01FF91EF91D6
:102AC000BF91AF919F918F917F916F915F914F9146
:102AD0003F912F910F900FBE0F901F9018951F924E
:102AE0000F920FB60F9211242F938F939F93EF9312
:102AF000FF93E0910904F0910A048081E0910F04B2
:102B0000F091100482FD1BC09081809112048F5FB0
:102B10008F7320911304821741F0E0911204F0E0CA
:102B2000E750FC4F958F80931204FF91EF919F9196
:102B30008F912F910F900FBE0F901F90189580814D
:102B4000F4CF1F920F920FB60F9211242F933F9341
:102B50008F939F93AF93BF938091E9039091EA0382
:102B6000A091EB03B091EC033091E80323E0230F35
:102B70002D3758F50196A11DB11D2093E8038093D0
:102B8000E9039093EA03A093EB03B093EC038091E5
:102B9000ED039091EE03A091EF03B091F003019645
:102BA000A11DB11D8093ED039093EE03A093EF035D
:102BB000B093F003BF91AF919F918F913F912F916F
:102BC0000F900FBE0F901F90189526E8230F0296C6
:102BD000A11DB11DD2CF1F920F920FB60F921124DB
:102BE0002F933F934F935F936F937F938F939F9315
:102BF000AF93BF93EF93FF938091B900887F8036A6
:102C000009F44AC0F0F5883209F4A7C018F58031FC
:102C100009F49BC0B8F4882309F4F9C0883009F49A
:102C200094C0FF91EF91BF91AF919F918F917F9150
:102C30006F915F914F913F912F910F900FBE0F9029
:102C40001F901895883109F488C0803251F780931D
:102C5000C10314C0803409F49DC040F48033B9F33B
:102C60008833F9F68093C10385ECB0C0803509F450
:102C700085C0883509F496C0883499F60E941115EC
:102C8000D0CF883909F48CC038F5883729F050F452
:102C9000883611F0803729F683E08093C2031092C2
:102CA000C00357C0883809F47BC0803919F08038D8
:102CB00009F0B7CF8091C003803208F071C0E09175
:102CC000C00381E08E0F8093C0038091BB00F0E0D1
:102CD000E056FC4F80833DC0803B39F0E0F4803A01
:102CE00009F479C0883A09F09CCF84E08093C2034C
:102CF00010929F0310929E03E091F303F091F4036E
:102D0000099580919E0381110FC081E080939E03FD
:102D100010927E0309C0803C09F4A6CF883C09F4D8
:102D2000A3CF883B09F07DCFE0919F0381E08E0F18
:102D300080939F03F0E0E258FC4F80818093BB00BA
:102D400090919F0380919E0329C08091E703809317
:102D5000BB0085EC8093BC0064CF9091E60380912A
:102D6000E503981758F5E091E60381E08E0F809314
:102D7000E603F0E0EB53FC4F8081E9CFE091E603FE
:102D800081E08E0F8093E6038091BB00F0E0EB536F
:102D9000FC4F80839091E6038091E5039817C8F279
:102DA00085E8D8CFE091E60381E08E0F8093E603BB
:102DB0008091BB00F0E0EB53FC4F80838091C40313
:102DC00081115CCF81E08093C30384EA8093BC00CF
:102DD0001092C20326CF85EC8093BC001092C203F0
:102DE0008091C003803230F4E091C003F0E0E056FF
:102DF000FC4F10826091C00370E0E091F103F0910C
:102E0000F20380EA93E009951092C0030ACF109272
:102E1000C10334CFCF93E9EFF3E01382128288EE3F
:102E200093E0A0E0B0E084839583A683B78320E499
:102E300031E03183208325EC30E03587248724EC92
:102E400030E03787268720EC30E0318B208B21EC77
:102E500030E0338B228B22EC30E0358B248B26EC58
:102E600030E0378B268B118E128E138E148EE6E98E
:102E7000F4E01382128284839583A683B78382E56C
:102E800091E091838083E1EDF4E080E090E0A0E8C0
:102E9000BFE383839483A583B683109229051092A0
:102EA0002805C1E0C093320584E080933405809307
:102EB00035052CE83AE03093430520934205109203
:102EC000450520E130E030934705209346051092F8
:102ED0004C0510924D0510924E0510924F05109220
:102EE000500510925105818386E0808360E085E083
:102EF0000E949D02E3EDF0E0E491A3ECB4E0EC93DA
:102F0000EFEBF0E0E491F0E0EE0FFF1FE055FF4F34
:102F10008591949112969C938E9311971B961C9277
:102F20001B971D961C921D971C961C921C971A9617
:102F30001C921A9719961C92199718961C9218971A
:102F400017961C92179716961C92169715961C9218
:102F5000159714961C92149713961C921397EFEAE8
:102F6000F4E0B783A68314821582108289E08183FE
:102F7000C283C383138A128AE2EAF4E013821282C4
:102F800084E691E091838083118687E2848380E1E7
:102F9000828782E083871486CF910895CF93DF9351
:102FA000CDB7DEB728970FB6F894DEBF0FBECDBF02
:102FB000789484B5826084BD84B5816084BD85B514
:102FC000826085BD85B5816085BD80916E00816020
:102FD00080936E00109281008091810082608093C6
:102FE00081008091810081608093810080918000C8
:102FF0008160809380008091B10084608093B100F3
:103000008091B00081608093B00080917A008460EC
:1030100080937A0080917A00826080937A00809118
:103020007A00816080937A0080917A008068809332
:103030007A001092C10061E082E00E949D0260E08F
:103040008CE00E949D0260E08DE00E949D0260E0A5
:103050008BE00E949D0261E08091D1040E949D025C
:1030600060E08091D2040E949D0281E08093D304AD
:1030700060E08091D1040E946F020E942603609359
:103080004D0570934E0580934F05909350050E9417
:103090002603603679408105910518F40E940009E5
:1030A000F6CF81E0809336051092330510924405E7
:1030B0000E94260320914205309143056B017C015B
:1030C000C20ED31EE11CF11C0E940009182F809132
:1030D000450581110BC00E942603C616D706E806D7
:1030E000F90620F481E08093440502C0123061F7B4
:1030F0001092410580E090E0AAEDB3E48093D404FF
:103100009093D504A093D604B093D7041092F803FB
:103110001092F7031092F6031092F5030E944A05ED
:103120008BE391E09093F4038093F3038CE391E0BD
:103130009093F2038093F1031092A7048091AD0461
:10314000823018F098E09093A7048093AA0462E379
:1031500070E080E090E00E94F3026091AE0482EAA9
:1031600094E00E940F0668EE73E080E090E00E9419
:10317000F30260E382EA94E00E9409080BE416E49B
:10318000C8010197F1F760E382EA94E00E94090820
:10319000C8010197F1F760E382EA94E00E94090810
:1031A00083E592E00197F1F760E282EA94E00E9401
:1031B00009086091A704606240E082EA94E00E94FE
:1031C000220884E08093A80440E06CE082EA94E066
:1031D0000E9422080E946A0882E08093A90440E0CD
:1031E00066E082EA94E00E94220840E062E082EA1F
:1031F00094E00E9422088BE39FE10197F1F788E0B9
:103200008093AE0460E082EA94E00E940F06E091B1
:10321000B504F091B60413861586148612861186BD
:103220001086178216821582148213821092B304BC
:103230001092B40401E0BE016F5F7F4F8091B5042E
:103240009091B6040E94FA06882309F468C067E0EA
:10325000CE0101960E94320398858913ECCF8091AC
:10326000AF04811128C08091B5049091B6040E94EA
:10327000EF03BE016F5F7F4F8091B5049091B6045C
:103280000E94D00340E064EB8091B5049091B604B5
:103290000E949C038091B5049091B6040E9449035A
:1032A000182F8091B5049091B6040E94EF0311117C
:1032B00002C00093AF041091B0048981803109F4F9
:1032C00075C0CE0101960E9473048117C0F48091ED
:1032D000B0048093B0048091B3048F5F8093B304F3
:1032E0008981883231F0A8F4803119F0823209F0F6
:1032F000A2CF8091B4048F5F8093B4049CCF898166
:10330000803111F48CE0E5CFCE0101960E94730468
:10331000E0CF8B3371F3823409F08DCFEACFE091A7
:103320000904F0910A0482E08083E0910504F091A1
:1033300006041082E0910704F09108048FEC80836A
:1033400010921104E0910D04F0910E0486E0808348
:10335000E0910B04F0910C04808180618083E09106
:103360000B04F0910C04808188608083E0910B0451
:10337000F0910C04808180688083E0910B04F091CF
:103380000C0480818F7D808361E089E00E946F0260
:1033900000E010E00E94E50A01151105D9F30E9432
:1033A0007A018823B9F30E940000F4CF1D3008F0A1
:1033B0008ECFA8CF5058BB27AA270E94F2190C9491
:1033C0006C1B0E945E1B38F00E94651B20F039F4D4
:1033D0009F3F19F426F40C945B1B0EF4E095E7FB79
:1033E0000C94551BE92F0E947D1B58F3BA176207F6
:1033F00073078407950720F079F4A6F50C949F1BBA
:103400000EF4E0950B2EBA2FA02D0B01B9019001FF
:103410000C01CA01A0011124FF27591B99F0593F43
:1034200050F4503E68F11A16F040A22F232F342F8B
:103430004427585FF3CF469537952795A795F040D9
:103440005395C9F77EF41F16BA0B620B730B840BEE
:10345000BAF09150A1F0FF0FBB1F661F771F881FA6
:10346000C2F70EC0BA0F621F731F841F48F48795FE
:1034700077956795B795F7959E3F08F0B0CF9395F0
:10348000880F08F09927EE0F9795879508950E9469
:10349000311B08F481E008950E94601A0C946C1BA3
:1034A0000E94651B58F00E945E1B40F029F45F3FAC
:1034B00029F00C94551B51110C94A01B0C945B1B10
:1034C0000E947D1B68F39923B1F3552391F3951B5B
:1034D000550BBB27AA2762177307840738F09F5F35
:1034E0005F4F220F331F441FAA1FA9F335D00E2EA2
:1034F0003AF0E0E832D091505040E695001CCAF70F
:103500002BD0FE2F29D0660F771F881FBB1F2617D1
:1035100037074807AB07B0E809F0BB0B802DBF01A8
:10352000FF2793585F4F3AF09E3F510578F00C9477
:10353000551B0C94A01B5F3FE4F3983ED4F3869593
:1035400077956795B795F7959F5FC9F7880F911D98
:103550009695879597F90895E1E0660F771F881F84
:10356000BB1F621773078407BA0720F0621B730B37
:10357000840BBA0BEE1F88F7E09508950E94C51AD8
:103580006894B1110C94A01B08950E94851B88F0CB
:103590009F5798F0B92F9927B751B0F0E1F0660F17
:1035A000771F881F991F1AF0BA95C9F714C0B13058
:1035B00091F00E949F1BB1E008950C949F1B672F10
:1035C000782F8827B85F39F0B93FCCF38695779587
:1035D0006795B395D9F73EF4909580957095619570
:1035E0007F4F8F4F9F4F0895E89409C097FB3EF49B
:1035F00090958095709561957F4F8F4F9F4F992340
:10360000A9F0F92F96E9BB279395F69587957795BD
:103610006795B795F111F8CFFAF4BB0F11F460FF7D
:103620001BC06F5F7F4F8F4F9F4F16C0882311F0D5
:1036300096E911C0772321F09EE8872F762F05C0E9
:10364000662371F096E8862F70E060E02AF09A9584
:10365000660F771F881FDAF7880F9695879597F979
:103660000895990F0008550FAA0BE0E8FEEF161613
:103670001706E807F907C0F012161306E407F50766
:1036800098F0621B730B840B950B39F40A2661F0DA
:10369000232B242B252B21F408950A2609F4A1407D
:1036A000A6958FEF811D811D089597F99F6780E88A
:1036B00070E060E008959FEF80EC089500240A9484
:1036C0001616170618060906089500240A941216FD
:1036D0001306140605060895092E0394000C11F430
:1036E000882352F0BB0F40F4BF2B11F460FF04C0DD
:1036F0006F5F7F4F8F4F9F4F089557FD9058440F36
:10370000551F59F05F3F71F04795880F97FB991F40
:1037100061F09F3F79F087950895121613061406FD
:10372000551FF2CF4695F1DF08C01616170618068A
:10373000991FF1CF86957105610508940895E89465
:10374000BB2766277727CB0197F908950E94311B85
:1037500008F48FEF08950E94BE1B0C946C1B0E940E
:103760005E1B38F00E94651B20F0952311F00C942D
:10377000551B0C945B1B11240C94A01B0E947D1BF9
:1037800070F3959FC1F3950F50E0551F629FF001B4
:10379000729FBB27F00DB11D639FAA27F00DB11DCD
:1037A000AA1F649F6627B00DA11D661F829F222756
:1037B000B00DA11D621F739FB00DA11D621F839FDD
:1037C000A00D611D221F749F3327A00D611D231FB3
:1037D000849F600D211D822F762F6A2F11249F5701
:1037E00050409AF0F1F088234AF0EE0FFF1FBB1F04
:1037F000661F771F881F91505040A9F79E3F5105C3
:1038000080F00C94551B0C94A01B5F3FE4F3983E92
:10381000D4F3869577956795B795F795E7959F5F6C
:10382000C1F7FE2B880F911D9695879597F90895FE
:103830000E94311B880B990B089597FB072E16F4F5
:10384000009407D077FD09D00E94531C07FC05D0D7
:103850003EF4909581959F4F0895709561957F4FA7
:103860000895A1E21A2EAA1BBB1BFD010DC0AA1FC1
:10387000BB1FEE1FFF1FA217B307E407F50720F0D9
:10388000A21BB30BE40BF50B661F771F881F991F54
:103890001A9469F760957095809590959B01AC019D
:1038A000BD01CF010895AA1BBB1B51E107C0AA1F90
:1038B000BB1FA617B70710F0A61BB70B881F991FD1
:1038C0005A95A9F780959095BC01CD010895EE0F0A
:0E38D000FF1F0590F491E02D0994F894FFCFAE
:1038DE000000C841013C00680132003C0028000590
:1038EE000001010000204280EE3600000048420038
:1038FE009749010100007042E09304001900000096
:10390E004000140054005E00BC007701000000006F
:10391E00B0010E013D01FD016E014C016001000080
:10392E000000E005B305F7068905AC0599058A0583
:10393E00000000007C080E01F706F6066461746153
:10394E004F75744F6652616E6765000D0A006E61A9
:10395E006E00696E66006F7666004D6F642053656B
:10396E007474696E67733F0053454C20666F722006
:10397E0059657300537461727420666F72204E6FB6
:10398E0000537461676520312054696D653A2000DB
:10399E004D61782054696D65004D696E2054696DD6
:1039AE006500537461676520312054656D703A204F
:1039BE00004D61782054656D70004D696E20546520
:1039CE006D7000537461676520322054696D653ADD
:1039DE002000537461676520322054656D703A2063
:1039EE0000537461676520332054696D653A200079
:1039FE00537461676520332054656D703A20004D15
:103A0E006F69737475726520436F6E3A20004D6155
:103A1E007820436F6E74656E74004D696E20436F2F
:103A2E006E74656E7400496E697469616C57656970
:103A3E006768743A20005B4772616D735D00436185
:103A4E006C63756C6174696E67004D6F6973747524
:103A5E00726520436F6E0046696E616C57656967CB
:103A6E00687400436F6D707574696E67004D6F6991
:103A7E007374757265436F6E74656E740025004DB8
:103A8E00436F6E74656E74005265616368656400A1
:103A9E0048656174696E6720416761696E00436FA6
:103AAE006E74696E75650054696D65723A200053C7
:103ABE0074617274696E670054454D503A2000541B
:103ACE006F205374616765203400546F2053746106
:103ADE0067652033005354415254494E4700537486
:103AEE00616765203100546F205374616765203221
:023AFE000000C6
:107E0000112484B714BE81FFF0D085E080938100F7
:107E100082E08093C00088E18093C10086E0809377
:107E2000C20080E18093C4008EE0C9D0259A86E02C
:107E300020E33CEF91E0309385002093840096BBD3
:107E4000B09BFECF1D9AA8958150A9F7CC24DD24C4
:107E500088248394B5E0AB2EA1E19A2EF3E0BF2EE7
:107E6000A2D0813461F49FD0082FAFD0023811F036
:107E7000013811F484E001C083E08DD089C08234E0
:107E800011F484E103C0853419F485E0A6D080C0E4
:107E9000853579F488D0E82EFF2485D0082F10E0AE
:107EA000102F00270E291F29000F111F8ED06801E7
:107EB0006FC0863521F484E090D080E0DECF843638
:107EC00009F040C070D06FD0082F6DD080E0C81688
:107ED00080E7D80618F4F601B7BEE895C0E0D1E017
:107EE00062D089930C17E1F7F0E0CF16F0E7DF06D8
:107EF00018F0F601B7BEE89568D007B600FCFDCFD4
:107F0000A601A0E0B1E02C9130E011968C91119780
:107F100090E0982F8827822B932B1296FA010C0160
:107F200087BEE89511244E5F5F4FF1E0A038BF0790
:107F300051F7F601A7BEE89507B600FCFDCF97BE46
:107F4000E89526C08437B1F42ED02DD0F82E2BD052
:107F50003CD0F601EF2C8F010F5F1F4F84911BD097
:107F6000EA94F801C1F70894C11CD11CFA94CF0C13
:107F7000D11C0EC0853739F428D08EE10CD085E9AC
:107F80000AD08FE07ACF813511F488E018D01DD067
:107F900080E101D065CF982F8091C00085FFFCCF94
:107FA0009093C60008958091C00087FFFCCF809118
:107FB000C00084FD01C0A8958091C6000895E0E648
:107FC000F0E098E1908380830895EDDF803219F02E
:107FD00088E0F5DFFFCF84E1DECF1F93182FE3DFCA
:107FE0001150E9F7F2DF1F91089580E0E8DFEE27F6
:047FF000FF270994CA
:027FFE00040479
:0400000300007E007B
:00000001FF